{
  "_format": "hh-sol-artifact-1",
  "contractName": "NFTMarketplace",
  "sourceName": "contracts/NFTMarketplace.sol",
  "abi": [
    {
      "inputs": [],
      "stateMutability": "nonpayable",
      "type": "constructor"
    },
    {
      "anonymous": false,
      "inputs": [
        {
          "indexed": true,
          "internalType": "address",
          "name": "owner",
          "type": "address"
        },
        {
          "indexed": true,
          "internalType": "address",
          "name": "approved",
          "type": "address"
        },
        {
          "indexed": true,
          "internalType": "uint256",
          "name": "tokenId",
          "type": "uint256"
        }
      ],
      "name": "Approval",
      "type": "event"
    },
    {
      "anonymous": false,
      "inputs": [
        {
          "indexed": true,
          "internalType": "address",
          "name": "owner",
          "type": "address"
        },
        {
          "indexed": true,
          "internalType": "address",
          "name": "operator",
          "type": "address"
        },
        {
          "indexed": false,
          "internalType": "bool",
          "name": "approved",
          "type": "bool"
        }
      ],
      "name": "ApprovalForAll",
      "type": "event"
    },
    {
      "anonymous": false,
      "inputs": [
        {
          "indexed": true,
          "internalType": "uint256",
          "name": "tokenId",
          "type": "uint256"
        },
        {
          "indexed": false,
          "internalType": "address",
          "name": "owner",
          "type": "address"
        },
        {
          "indexed": false,
          "internalType": "address",
          "name": "seller",
          "type": "address"
        },
        {
          "indexed": false,
          "internalType": "uint256",
          "name": "price",
          "type": "uint256"
        },
        {
          "indexed": false,
          "internalType": "bool",
          "name": "currentlyListed",
          "type": "bool"
        }
      ],
      "name": "TokenListedSuccess",
      "type": "event"
    },
    {
      "anonymous": false,
      "inputs": [
        {
          "indexed": true,
          "internalType": "address",
          "name": "from",
          "type": "address"
        },
        {
          "indexed": true,
          "internalType": "address",
          "name": "to",
          "type": "address"
        },
        {
          "indexed": true,
          "internalType": "uint256",
          "name": "tokenId",
          "type": "uint256"
        }
      ],
      "name": "Transfer",
      "type": "event"
    },
    {
      "inputs": [
        {
          "internalType": "address",
          "name": "to",
          "type": "address"
        },
        {
          "internalType": "uint256",
          "name": "tokenId",
          "type": "uint256"
        }
      ],
      "name": "approve",
      "outputs": [],
      "stateMutability": "nonpayable",
      "type": "function"
    },
    {
      "inputs": [
        {
          "internalType": "address",
          "name": "owner",
          "type": "address"
        }
      ],
      "name": "balanceOf",
      "outputs": [
        {
          "internalType": "uint256",
          "name": "",
          "type": "uint256"
        }
      ],
      "stateMutability": "view",
      "type": "function"
    },
    {
      "inputs": [
        {
          "internalType": "string",
          "name": "tokenURI",
          "type": "string"
        },
        {
          "internalType": "uint256",
          "name": "price",
          "type": "uint256"
        }
      ],
      "name": "createToken",
      "outputs": [
        {
          "internalType": "uint256",
          "name": "",
          "type": "uint256"
        }
      ],
      "stateMutability": "payable",
      "type": "function"
    },
    {
      "inputs": [
        {
          "internalType": "uint256",
          "name": "tokenId",
          "type": "uint256"
        }
      ],
      "name": "executeSale",
      "outputs": [],
      "stateMutability": "payable",
      "type": "function"
    },
    {
      "inputs": [],
      "name": "getAllNFTs",
      "outputs": [
        {
          "components": [
            {
              "internalType": "uint256",
              "name": "tokenId",
              "type": "uint256"
            },
            {
              "internalType": "address payable",
              "name": "owner",
              "type": "address"
            },
            {
              "internalType": "address payable",
              "name": "seller",
              "type": "address"
            },
            {
              "internalType": "uint256",
              "name": "price",
              "type": "uint256"
            },
            {
              "internalType": "bool",
              "name": "currentlyListed",
              "type": "bool"
            }
          ],
          "internalType": "struct NFTMarketplace.ListedToken[]",
          "name": "",
          "type": "tuple[]"
        }
      ],
      "stateMutability": "view",
      "type": "function"
    },
    {
      "inputs": [
        {
          "internalType": "uint256",
          "name": "tokenId",
          "type": "uint256"
        }
      ],
      "name": "getApproved",
      "outputs": [
        {
          "internalType": "address",
          "name": "",
          "type": "address"
        }
      ],
      "stateMutability": "view",
      "type": "function"
    },
    {
      "inputs": [],
      "name": "getCurrentToken",
      "outputs": [
        {
          "internalType": "uint256",
          "name": "",
          "type": "uint256"
        }
      ],
      "stateMutability": "view",
      "type": "function"
    },
    {
      "inputs": [],
      "name": "getLatestIdToListedToken",
      "outputs": [
        {
          "components": [
            {
              "internalType": "uint256",
              "name": "tokenId",
              "type": "uint256"
            },
            {
              "internalType": "address payable",
              "name": "owner",
              "type": "address"
            },
            {
              "internalType": "address payable",
              "name": "seller",
              "type": "address"
            },
            {
              "internalType": "uint256",
              "name": "price",
              "type": "uint256"
            },
            {
              "internalType": "bool",
              "name": "currentlyListed",
              "type": "bool"
            }
          ],
          "internalType": "struct NFTMarketplace.ListedToken",
          "name": "",
          "type": "tuple"
        }
      ],
      "stateMutability": "view",
      "type": "function"
    },
    {
      "inputs": [],
      "name": "getListPrice",
      "outputs": [
        {
          "internalType": "uint256",
          "name": "",
          "type": "uint256"
        }
      ],
      "stateMutability": "view",
      "type": "function"
    },
    {
      "inputs": [
        {
          "internalType": "uint256",
          "name": "tokenId",
          "type": "uint256"
        }
      ],
      "name": "getListedTokenForId",
      "outputs": [
        {
          "components": [
            {
              "internalType": "uint256",
              "name": "tokenId",
              "type": "uint256"
            },
            {
              "internalType": "address payable",
              "name": "owner",
              "type": "address"
            },
            {
              "internalType": "address payable",
              "name": "seller",
              "type": "address"
            },
            {
              "internalType": "uint256",
              "name": "price",
              "type": "uint256"
            },
            {
              "internalType": "bool",
              "name": "currentlyListed",
              "type": "bool"
            }
          ],
          "internalType": "struct NFTMarketplace.ListedToken",
          "name": "",
          "type": "tuple"
        }
      ],
      "stateMutability": "view",
      "type": "function"
    },
    {
      "inputs": [],
      "name": "getMyNFTs",
      "outputs": [
        {
          "components": [
            {
              "internalType": "uint256",
              "name": "tokenId",
              "type": "uint256"
            },
            {
              "internalType": "address payable",
              "name": "owner",
              "type": "address"
            },
            {
              "internalType": "address payable",
              "name": "seller",
              "type": "address"
            },
            {
              "internalType": "uint256",
              "name": "price",
              "type": "uint256"
            },
            {
              "internalType": "bool",
              "name": "currentlyListed",
              "type": "bool"
            }
          ],
          "internalType": "struct NFTMarketplace.ListedToken[]",
          "name": "",
          "type": "tuple[]"
        }
      ],
      "stateMutability": "view",
      "type": "function"
    },
    {
      "inputs": [
        {
          "internalType": "address",
          "name": "owner",
          "type": "address"
        },
        {
          "internalType": "address",
          "name": "operator",
          "type": "address"
        }
      ],
      "name": "isApprovedForAll",
      "outputs": [
        {
          "internalType": "bool",
          "name": "",
          "type": "bool"
        }
      ],
      "stateMutability": "view",
      "type": "function"
    },
    {
      "inputs": [],
      "name": "name",
      "outputs": [
        {
          "internalType": "string",
          "name": "",
          "type": "string"
        }
      ],
      "stateMutability": "view",
      "type": "function"
    },
    {
      "inputs": [
        {
          "internalType": "uint256",
          "name": "tokenId",
          "type": "uint256"
        }
      ],
      "name": "ownerOf",
      "outputs": [
        {
          "internalType": "address",
          "name": "",
          "type": "address"
        }
      ],
      "stateMutability": "view",
      "type": "function"
    },
    {
      "inputs": [
        {
          "internalType": "address",
          "name": "from",
          "type": "address"
        },
        {
          "internalType": "address",
          "name": "to",
          "type": "address"
        },
        {
          "internalType": "uint256",
          "name": "tokenId",
          "type": "uint256"
        }
      ],
      "name": "safeTransferFrom",
      "outputs": [],
      "stateMutability": "nonpayable",
      "type": "function"
    },
    {
      "inputs": [
        {
          "internalType": "address",
          "name": "from",
          "type": "address"
        },
        {
          "internalType": "address",
          "name": "to",
          "type": "address"
        },
        {
          "internalType": "uint256",
          "name": "tokenId",
          "type": "uint256"
        },
        {
          "internalType": "bytes",
          "name": "data",
          "type": "bytes"
        }
      ],
      "name": "safeTransferFrom",
      "outputs": [],
      "stateMutability": "nonpayable",
      "type": "function"
    },
    {
      "inputs": [
        {
          "internalType": "address",
          "name": "operator",
          "type": "address"
        },
        {
          "internalType": "bool",
          "name": "approved",
          "type": "bool"
        }
      ],
      "name": "setApprovalForAll",
      "outputs": [],
      "stateMutability": "nonpayable",
      "type": "function"
    },
    {
      "inputs": [
        {
          "internalType": "bytes4",
          "name": "interfaceId",
          "type": "bytes4"
        }
      ],
      "name": "supportsInterface",
      "outputs": [
        {
          "internalType": "bool",
          "name": "",
          "type": "bool"
        }
      ],
      "stateMutability": "view",
      "type": "function"
    },
    {
      "inputs": [],
      "name": "symbol",
      "outputs": [
        {
          "internalType": "string",
          "name": "",
          "type": "string"
        }
      ],
      "stateMutability": "view",
      "type": "function"
    },
    {
      "inputs": [
        {
          "internalType": "uint256",
          "name": "tokenId",
          "type": "uint256"
        }
      ],
      "name": "tokenURI",
      "outputs": [
        {
          "internalType": "string",
          "name": "",
          "type": "string"
        }
      ],
      "stateMutability": "view",
      "type": "function"
    },
    {
      "inputs": [
        {
          "internalType": "address",
          "name": "from",
          "type": "address"
        },
        {
          "internalType": "address",
          "name": "to",
          "type": "address"
        },
        {
          "internalType": "uint256",
          "name": "tokenId",
          "type": "uint256"
        }
      ],
      "name": "transferFrom",
      "outputs": [],
      "stateMutability": "nonpayable",
      "type": "function"
    },
    {
      "inputs": [
        {
          "internalType": "uint256",
          "name": "_listPrice",
          "type": "uint256"
        }
      ],
      "name": "updateListPrice",
      "outputs": [],
      "stateMutability": "payable",
      "type": "function"
    }
  ],
  "bytecode": "0x6080604052662386f26fc10000600a553480156200001c57600080fd5b50604080518082018252600e81526d4e46544d61726b6574706c61636560901b6020808301918252835180850190945260048452634e46544d60e01b9084015281519192916200006f91600091620000a0565b50805162000085906001906020840190620000a0565b5050600980546001600160a01b031916331790555062000183565b828054620000ae9062000146565b90600052602060002090601f016020900481019282620000d257600085556200011d565b82601f10620000ed57805160ff19168380011785556200011d565b828001600101855582156200011d579182015b828111156200011d57825182559160200191906001019062000100565b506200012b9291506200012f565b5090565b5b808211156200012b576000815560010162000130565b600181811c908216806200015b57607f821691505b602082108114156200017d57634e487b7160e01b600052602260045260246000fd5b50919050565b61217780620001936000396000f3fe6080604052600436106101355760003560e01c80638e264590116100ab578063c322579c1161006f578063c322579c14610354578063c87b56dd14610367578063d1a88ae514610387578063e0391b091461039c578063e985e9c5146103b1578063ef2d1746146103fa57600080fd5b80638e264590146102bf57806395d89b41146102ec5780639b1225c414610301578063a22cb46514610314578063b88d4fde1461033457600080fd5b806342842e0e116100fd57806342842e0e1461020b578063629cb2e41461022b5780636352211e1461024d57806368f1945f1461026d57806370a082311461028c57806372b3b620146102ac57600080fd5b806301ffc9a71461013a57806306fdde031461016f578063081812fc14610191578063095ea7b3146101c957806323b872dd146101eb575b600080fd5b34801561014657600080fd5b5061015a610155366004611d7d565b61040f565b60405190151581526020015b60405180910390f35b34801561017b57600080fd5b50610184610461565b6040516101669190611f49565b34801561019d57600080fd5b506101b16101ac366004611e0b565b6104f3565b6040516001600160a01b039091168152602001610166565b3480156101d557600080fd5b506101e96101e4366004611d54565b61051a565b005b3480156101f757600080fd5b506101e9610206366004611c66565b610635565b34801561021757600080fd5b506101e9610226366004611c66565b610666565b34801561023757600080fd5b50610240610681565b6040516101669190611efb565b34801561025957600080fd5b506101b1610268366004611e0b565b6108c4565b34801561027957600080fd5b50600a545b604051908152602001610166565b34801561029857600080fd5b5061027e6102a7366004611c1a565b610924565b61027e6102ba366004611db5565b6109aa565b3480156102cb57600080fd5b506102df6102da366004611e0b565b6109ec565b6040516101669190612040565b3480156102f857600080fd5b50610184610a56565b6101e961030f366004611e0b565b610a65565b34801561032057600080fd5b506101e961032f366004611d1a565b610bc9565b34801561034057600080fd5b506101e961034f366004611ca1565b610bd8565b6101e9610362366004611e0b565b610c0a565b34801561037357600080fd5b50610184610382366004611e0b565b610c75565b34801561039357600080fd5b506102df610d86565b3480156103a857600080fd5b50610240610dfd565b3480156103bd57600080fd5b5061015a6103cc366004611c34565b6001600160a01b03918216600090815260056020908152604080832093909416825291909152205460ff1690565b34801561040657600080fd5b5061027e610f43565b60006001600160e01b031982166380ac58cd60e01b148061044057506001600160e01b03198216635b5e139f60e01b145b8061045b57506301ffc9a760e01b6001600160e01b03198316145b92915050565b606060008054610470906120a9565b80601f016020809104026020016040519081016040528092919081815260200182805461049c906120a9565b80156104e95780601f106104be576101008083540402835291602001916104e9565b820191906000526020600020905b8154815290600101906020018083116104cc57829003601f168201915b5050505050905090565b60006104fe82610f53565b506000908152600460205260409020546001600160a01b031690565b6000610525826108c4565b9050806001600160a01b0316836001600160a01b031614156105985760405162461bcd60e51b815260206004820152602160248201527f4552433732313a20617070726f76616c20746f2063757272656e74206f776e656044820152603960f91b60648201526084015b60405180910390fd5b336001600160a01b03821614806105b457506105b481336103cc565b6106265760405162461bcd60e51b815260206004820152603d60248201527f4552433732313a20617070726f76652063616c6c6572206973206e6f7420746f60448201527f6b656e206f776e6572206f7220617070726f76656420666f7220616c6c000000606482015260840161058f565b6106308383610fb5565b505050565b61063f3382611023565b61065b5760405162461bcd60e51b815260040161058f90611f5c565b6106308383836110a1565b61063083838360405180602001604052806000815250610bd8565b6060600061068e60075490565b905060008080805b848110156107265733600b60006106ae84600161204e565b81526020810191909152604001600020600101546001600160a01b03161480610701575033600b60006106e284600161204e565b81526020810191909152604001600020600201546001600160a01b0316145b156107145761071160018561204e565b93505b8061071e816120e4565b915050610696565b5060008367ffffffffffffffff81111561075057634e487b7160e01b600052604160045260246000fd5b60405190808252806020026020018201604052801561078957816020015b610776611ac1565b81526020019060019003908161076e5790505b50905060005b858110156108ba5733600b60006107a784600161204e565b81526020810191909152604001600020600101546001600160a01b031614806107fa575033600b60006107db84600161204e565b81526020810191909152604001600020600201546001600160a01b0316145b156108a85761080a81600161204e565b6000818152600b6020908152604091829020825160a0810184528154815260018201546001600160a01b039081169382019390935260028201549092169282019290925260038201546060820152600482015460ff16151560808201528451929550909184908790811061088e57634e487b7160e01b600052603260045260246000fd5b60209081029190910101526108a460018661204e565b9450505b806108b2816120e4565b91505061078f565b5095945050505050565b6000818152600260205260408120546001600160a01b03168061045b5760405162461bcd60e51b8152602060048201526018602482015277115490cdcc8c4e881a5b9d985b1a59081d1bdad95b88125160421b604482015260640161058f565b60006001600160a01b03821661098e5760405162461bcd60e51b815260206004820152602960248201527f4552433732313a2061646472657373207a65726f206973206e6f7420612076616044820152683634b21037bbb732b960b91b606482015260840161058f565b506001600160a01b031660009081526003602052604090205490565b60006109ba600780546001019055565b60006109c560075490565b90506109d13382611212565b6109db818561122c565b6109e581846112c6565b9392505050565b6109f4611ac1565b506000908152600b6020908152604091829020825160a0810184528154815260018201546001600160a01b03908116938201939093526002820154909216928201929092526003820154606082015260049091015460ff161515608082015290565b606060018054610470906120a9565b6000818152600b6020526040902060038101546002909101546001600160a01b0316348214610afe576040805162461bcd60e51b81526020600482015260248101919091527f506c65617365207375626d6974207468652061736b696e67207072696365206960448201527f6e206f7264657220746f20636f6d706c65746520746865207075726368617365606482015260840161058f565b6000838152600b6020526040902060048101805460ff1916600117905560020180546001600160a01b03191633179055610b3c600880546001019055565b610b473033856110a1565b610b51308461051a565b600954600a546040516001600160a01b039092169181156108fc0291906000818181858888f19350505050158015610b8d573d6000803e3d6000fd5b506040516001600160a01b038216903480156108fc02916000818181858888f19350505050158015610bc3573d6000803e3d6000fd5b50505050565b610bd4338383611468565b5050565b610be23383611023565b610bfe5760405162461bcd60e51b815260040161058f90611f5c565b610bc384848484611537565b6009546001600160a01b03163314610c705760405162461bcd60e51b815260206004820152602360248201527f4f6e6c79206f776e65722063616e20757064617465206c697374696e6720707260448201526269636560e81b606482015260840161058f565b600a55565b6060610c8082610f53565b60008281526006602052604081208054610c99906120a9565b80601f0160208091040260200160405190810160405280929190818152602001828054610cc5906120a9565b8015610d125780601f10610ce757610100808354040283529160200191610d12565b820191906000526020600020905b815481529060010190602001808311610cf557829003601f168201915b505050505090506000610d3060408051602081019091526000815290565b9050805160001415610d43575092915050565b815115610d75578082604051602001610d5d929190611e8f565b60405160208183030381529060405292505050919050565b610d7e8461156a565b949350505050565b610d8e611ac1565b6000610d9960075490565b6000908152600b6020908152604091829020825160a0810184528154815260018201546001600160a01b03908116938201939093526002820154909216928201929092526003820154606082015260049091015460ff161515608082015292915050565b60606000610e0a60075490565b905060008167ffffffffffffffff811115610e3557634e487b7160e01b600052604160045260246000fd5b604051908082528060200260200182016040528015610e6e57816020015b610e5b611ac1565b815260200190600190039081610e535790505b509050600080805b84811015610f3957610e8981600161204e565b6000818152600b6020908152604091829020825160a0810184528154815260018201546001600160a01b039081169382019390935260028201549092169282019290925260038201546060820152600482015460ff161515608082015286519294509091869086908110610f0d57634e487b7160e01b600052603260045260246000fd5b6020908102919091010152610f2360018561204e565b9350508080610f31906120e4565b915050610e76565b5091949350505050565b6000610f4e60075490565b905090565b6000818152600260205260409020546001600160a01b0316610fb25760405162461bcd60e51b8152602060048201526018602482015277115490cdcc8c4e881a5b9d985b1a59081d1bdad95b88125160421b604482015260640161058f565b50565b600081815260046020526040902080546001600160a01b0319166001600160a01b0384169081179091558190610fea826108c4565b6001600160a01b03167f8c5be1e5ebec7d5bd14f71427d1e84f3dd0314c0f7b2291e5b200ac8c7c3b92560405160405180910390a45050565b60008061102f836108c4565b9050806001600160a01b0316846001600160a01b0316148061107657506001600160a01b0380821660009081526005602090815260408083209388168352929052205460ff165b80610d7e5750836001600160a01b031661108f846104f3565b6001600160a01b031614949350505050565b826001600160a01b03166110b4826108c4565b6001600160a01b0316146110da5760405162461bcd60e51b815260040161058f90611ffb565b6001600160a01b03821661113c5760405162461bcd60e51b8152602060048201526024808201527f4552433732313a207472616e7366657220746f20746865207a65726f206164646044820152637265737360e01b606482015260840161058f565b61114983838360016115dd565b826001600160a01b031661115c826108c4565b6001600160a01b0316146111825760405162461bcd60e51b815260040161058f90611ffb565b600081815260046020908152604080832080546001600160a01b03199081169091556001600160a01b0387811680865260038552838620805460001901905590871680865283862080546001019055868652600290945282852080549092168417909155905184937fddf252ad1be2c89b69c2b068fc378daa952ba7f163c4a11628f55a4df523b3ef91a4505050565b610bd4828260405180602001604052806000815250611665565b6000828152600260205260409020546001600160a01b03166112a75760405162461bcd60e51b815260206004820152602e60248201527f45524337323155524953746f726167653a2055524920736574206f66206e6f6e60448201526d32bc34b9ba32b73a103a37b5b2b760911b606482015260840161058f565b6000828152600660209081526040909120825161063092840190611aef565b600a5434146113235760405162461bcd60e51b815260206004820152602360248201527f486f706566756c6c792073656e64696e672074686520636f727265637420707260448201526269636560e81b606482015260840161058f565b6000811161137e5760405162461bcd60e51b815260206004820152602260248201527f4d616b652073757265207468652070726963652069736e2774206e6567617469604482015261766560f01b606482015260840161058f565b6040805160a081018252838152306020808301828152338486018181526060860188815260016080880181815260008c8152600b9097529890952096518755925193860180546001600160a01b039586166001600160a01b03199182161790915590516002870180549190951691161790925551600384015592516004909201805492151560ff199093169290921790915561141b9190846110a1565b604080513081523360208201529081018290526001606082015282907f9339409317fd01fabff48b703019016f49159bacc801ae872d2ca637d226e4c09060800160405180910390a25050565b816001600160a01b0316836001600160a01b031614156114ca5760405162461bcd60e51b815260206004820152601960248201527f4552433732313a20617070726f766520746f2063616c6c657200000000000000604482015260640161058f565b6001600160a01b03838116600081815260056020908152604080832094871680845294825291829020805460ff191686151590811790915591519182527f17307eab39ab6107e8899845ad3d59bd9653f200f220920489ca2b5937696c31910160405180910390a3505050565b6115428484846110a1565b61154e84848484611698565b610bc35760405162461bcd60e51b815260040161058f90611fa9565b606061157582610f53565b600061158c60408051602081019091526000815290565b905060008151116115ac57604051806020016040528060008152506109e5565b806115b6846117a5565b6040516020016115c7929190611e8f565b6040516020818303038152906040529392505050565b6001811115610bc3576001600160a01b03841615611623576001600160a01b0384166000908152600360205260408120805483929061161d908490612066565b90915550505b6001600160a01b03831615610bc3576001600160a01b0383166000908152600360205260408120805483929061165a90849061204e565b909155505050505050565b61166f8383611850565b61167c6000848484611698565b6106305760405162461bcd60e51b815260040161058f90611fa9565b60006001600160a01b0384163b1561179a57604051630a85bd0160e11b81526001600160a01b0385169063150b7a02906116dc903390899088908890600401611ebe565b602060405180830381600087803b1580156116f657600080fd5b505af1925050508015611726575060408051601f3d908101601f1916820190925261172391810190611d99565b60015b611780573d808015611754576040519150601f19603f3d011682016040523d82523d6000602084013e611759565b606091505b5080516117785760405162461bcd60e51b815260040161058f90611fa9565b805181602001fd5b6001600160e01b031916630a85bd0160e11b149050610d7e565b506001949350505050565b606060006117b2836119e9565b600101905060008167ffffffffffffffff8111156117e057634e487b7160e01b600052604160045260246000fd5b6040519080825280601f01601f19166020018201604052801561180a576020820181803683370190505b5090508181016020015b600019016f181899199a1a9b1b9c1cb0b131b232b360811b600a86061a8153600a850494508461184357611848565b611814565b509392505050565b6001600160a01b0382166118a65760405162461bcd60e51b815260206004820181905260248201527f4552433732313a206d696e7420746f20746865207a65726f2061646472657373604482015260640161058f565b6000818152600260205260409020546001600160a01b03161561190b5760405162461bcd60e51b815260206004820152601c60248201527f4552433732313a20746f6b656e20616c7265616479206d696e74656400000000604482015260640161058f565b6119196000838360016115dd565b6000818152600260205260409020546001600160a01b03161561197e5760405162461bcd60e51b815260206004820152601c60248201527f4552433732313a20746f6b656e20616c7265616479206d696e74656400000000604482015260640161058f565b6001600160a01b038216600081815260036020908152604080832080546001019055848352600290915280822080546001600160a01b0319168417905551839291907fddf252ad1be2c89b69c2b068fc378daa952ba7f163c4a11628f55a4df523b3ef908290a45050565b60008072184f03e93ff9f4daa797ed6e38ed64bf6a1f0160401b8310611a285772184f03e93ff9f4daa797ed6e38ed64bf6a1f0160401b830492506040015b6d04ee2d6d415b85acef81000000008310611a54576d04ee2d6d415b85acef8100000000830492506020015b662386f26fc100008310611a7257662386f26fc10000830492506010015b6305f5e1008310611a8a576305f5e100830492506008015b6127108310611a9e57612710830492506004015b60648310611ab0576064830492506002015b600a831061045b5760010192915050565b6040805160a08101825260008082526020820181905291810182905260608101829052608081019190915290565b828054611afb906120a9565b90600052602060002090601f016020900481019282611b1d5760008555611b63565b82601f10611b3657805160ff1916838001178555611b63565b82800160010185558215611b63579182015b82811115611b63578251825591602001919060010190611b48565b50611b6f929150611b73565b5090565b5b80821115611b6f5760008155600101611b74565b600067ffffffffffffffff80841115611ba357611ba3612115565b604051601f8501601f19908116603f01168101908282118183101715611bcb57611bcb612115565b81604052809350858152868686011115611be457600080fd5b858560208301376000602087830101525050509392505050565b80356001600160a01b0381168114611c1557600080fd5b919050565b600060208284031215611c2b578081fd5b6109e582611bfe565b60008060408385031215611c46578081fd5b611c4f83611bfe565b9150611c5d60208401611bfe565b90509250929050565b600080600060608486031215611c7a578081fd5b611c8384611bfe565b9250611c9160208501611bfe565b9150604084013590509250925092565b60008060008060808587031215611cb6578081fd5b611cbf85611bfe565b9350611ccd60208601611bfe565b925060408501359150606085013567ffffffffffffffff811115611cef578182fd5b8501601f81018713611cff578182fd5b611d0e87823560208401611b88565b91505092959194509250565b60008060408385031215611d2c578182fd5b611d3583611bfe565b915060208301358015158114611d49578182fd5b809150509250929050565b60008060408385031215611d66578182fd5b611d6f83611bfe565b946020939093013593505050565b600060208284031215611d8e578081fd5b81356109e58161212b565b600060208284031215611daa578081fd5b81516109e58161212b565b60008060408385031215611dc7578182fd5b823567ffffffffffffffff811115611ddd578283fd5b8301601f81018513611ded578283fd5b611dfc85823560208401611b88565b95602094909401359450505050565b600060208284031215611e1c578081fd5b5035919050565b60008151808452611e3b81602086016020860161207d565b601f01601f19169290920160200192915050565b805182526020808201516001600160a01b039081169184019190915260408083015190911690830152606080820151908301526080908101511515910152565b60008351611ea181846020880161207d565b835190830190611eb581836020880161207d565b01949350505050565b6001600160a01b0385811682528416602082015260408101839052608060608201819052600090611ef190830184611e23565b9695505050505050565b6020808252825182820181905260009190848201906040850190845b81811015611f3d57611f2a838551611e4f565b9284019260a09290920191600101611f17565b50909695505050505050565b6020815260006109e56020830184611e23565b6020808252602d908201527f4552433732313a2063616c6c6572206973206e6f7420746f6b656e206f776e6560408201526c1c881bdc88185c1c1c9bdd9959609a1b606082015260800190565b60208082526032908201527f4552433732313a207472616e7366657220746f206e6f6e20455243373231526560408201527131b2b4bb32b91034b6b83632b6b2b73a32b960711b606082015260800190565b60208082526025908201527f4552433732313a207472616e736665722066726f6d20696e636f72726563742060408201526437bbb732b960d91b606082015260800190565b60a0810161045b8284611e4f565b60008219821115612061576120616120ff565b500190565b600082821015612078576120786120ff565b500390565b60005b83811015612098578181015183820152602001612080565b83811115610bc35750506000910152565b600181811c908216806120bd57607f821691505b602082108114156120de57634e487b7160e01b600052602260045260246000fd5b50919050565b60006000198214156120f8576120f86120ff565b5060010190565b634e487b7160e01b600052601160045260246000fd5b634e487b7160e01b600052604160045260246000fd5b6001600160e01b031981168114610fb257600080fdfea264697066735822122090da52fe08ed360b3b15af147c87be3fef77c869ba83616c6e62d0d917a142ba64736f6c63430008040033",
  "linkReferences": {},
  "deployedLinkReferences": {}
}