{
  "_format": "hh-sol-artifact-1",
  "contractName": "NFTMarketplace",
  "sourceName": "contracts/NFTMarketplace.sol",
  "abi": [
    {
      "inputs": [],
      "stateMutability": "nonpayable",
      "type": "constructor"
    },
    {
      "anonymous": false,
      "inputs": [
        {
          "indexed": true,
          "internalType": "address",
          "name": "owner",
          "type": "address"
        },
        {
          "indexed": true,
          "internalType": "address",
          "name": "approved",
          "type": "address"
        },
        {
          "indexed": true,
          "internalType": "uint256",
          "name": "tokenId",
          "type": "uint256"
        }
      ],
      "name": "Approval",
      "type": "event"
    },
    {
      "anonymous": false,
      "inputs": [
        {
          "indexed": true,
          "internalType": "address",
          "name": "owner",
          "type": "address"
        },
        {
          "indexed": true,
          "internalType": "address",
          "name": "operator",
          "type": "address"
        },
        {
          "indexed": false,
          "internalType": "bool",
          "name": "approved",
          "type": "bool"
        }
      ],
      "name": "ApprovalForAll",
      "type": "event"
    },
    {
      "anonymous": false,
      "inputs": [
        {
          "indexed": false,
          "internalType": "uint256",
          "name": "_fromTokenId",
          "type": "uint256"
        },
        {
          "indexed": false,
          "internalType": "uint256",
          "name": "_toTokenId",
          "type": "uint256"
        }
      ],
      "name": "BatchMetadataUpdate",
      "type": "event"
    },
    {
      "anonymous": false,
      "inputs": [
        {
          "indexed": false,
          "internalType": "uint256",
          "name": "_tokenId",
          "type": "uint256"
        }
      ],
      "name": "MetadataUpdate",
      "type": "event"
    },
    {
      "anonymous": false,
      "inputs": [
        {
          "indexed": true,
          "internalType": "address",
          "name": "from",
          "type": "address"
        },
        {
          "indexed": true,
          "internalType": "address",
          "name": "to",
          "type": "address"
        },
        {
          "indexed": true,
          "internalType": "uint256",
          "name": "tokenId",
          "type": "uint256"
        }
      ],
      "name": "Transfer",
      "type": "event"
    },
    {
      "inputs": [
        {
          "internalType": "address",
          "name": "to",
          "type": "address"
        },
        {
          "internalType": "uint256",
          "name": "tokenId",
          "type": "uint256"
        }
      ],
      "name": "approve",
      "outputs": [],
      "stateMutability": "nonpayable",
      "type": "function"
    },
    {
      "inputs": [
        {
          "internalType": "address",
          "name": "owner",
          "type": "address"
        }
      ],
      "name": "balanceOf",
      "outputs": [
        {
          "internalType": "uint256",
          "name": "",
          "type": "uint256"
        }
      ],
      "stateMutability": "view",
      "type": "function"
    },
    {
      "inputs": [
        {
          "internalType": "uint256",
          "name": "tokenId",
          "type": "uint256"
        }
      ],
      "name": "getApproved",
      "outputs": [
        {
          "internalType": "address",
          "name": "",
          "type": "address"
        }
      ],
      "stateMutability": "view",
      "type": "function"
    },
    {
      "inputs": [
        {
          "internalType": "address",
          "name": "owner",
          "type": "address"
        },
        {
          "internalType": "address",
          "name": "operator",
          "type": "address"
        }
      ],
      "name": "isApprovedForAll",
      "outputs": [
        {
          "internalType": "bool",
          "name": "",
          "type": "bool"
        }
      ],
      "stateMutability": "view",
      "type": "function"
    },
    {
      "inputs": [],
      "name": "name",
      "outputs": [
        {
          "internalType": "string",
          "name": "",
          "type": "string"
        }
      ],
      "stateMutability": "view",
      "type": "function"
    },
    {
      "inputs": [],
      "name": "owner",
      "outputs": [
        {
          "internalType": "address payable",
          "name": "",
          "type": "address"
        }
      ],
      "stateMutability": "view",
      "type": "function"
    },
    {
      "inputs": [
        {
          "internalType": "uint256",
          "name": "tokenId",
          "type": "uint256"
        }
      ],
      "name": "ownerOf",
      "outputs": [
        {
          "internalType": "address",
          "name": "",
          "type": "address"
        }
      ],
      "stateMutability": "view",
      "type": "function"
    },
    {
      "inputs": [
        {
          "internalType": "address",
          "name": "from",
          "type": "address"
        },
        {
          "internalType": "address",
          "name": "to",
          "type": "address"
        },
        {
          "internalType": "uint256",
          "name": "tokenId",
          "type": "uint256"
        }
      ],
      "name": "safeTransferFrom",
      "outputs": [],
      "stateMutability": "nonpayable",
      "type": "function"
    },
    {
      "inputs": [
        {
          "internalType": "address",
          "name": "from",
          "type": "address"
        },
        {
          "internalType": "address",
          "name": "to",
          "type": "address"
        },
        {
          "internalType": "uint256",
          "name": "tokenId",
          "type": "uint256"
        },
        {
          "internalType": "bytes",
          "name": "data",
          "type": "bytes"
        }
      ],
      "name": "safeTransferFrom",
      "outputs": [],
      "stateMutability": "nonpayable",
      "type": "function"
    },
    {
      "inputs": [
        {
          "internalType": "address",
          "name": "operator",
          "type": "address"
        },
        {
          "internalType": "bool",
          "name": "approved",
          "type": "bool"
        }
      ],
      "name": "setApprovalForAll",
      "outputs": [],
      "stateMutability": "nonpayable",
      "type": "function"
    },
    {
      "inputs": [
        {
          "internalType": "bytes4",
          "name": "interfaceId",
          "type": "bytes4"
        }
      ],
      "name": "supportsInterface",
      "outputs": [
        {
          "internalType": "bool",
          "name": "",
          "type": "bool"
        }
      ],
      "stateMutability": "view",
      "type": "function"
    },
    {
      "inputs": [],
      "name": "symbol",
      "outputs": [
        {
          "internalType": "string",
          "name": "",
          "type": "string"
        }
      ],
      "stateMutability": "view",
      "type": "function"
    },
    {
      "inputs": [
        {
          "internalType": "uint256",
          "name": "tokenId",
          "type": "uint256"
        }
      ],
      "name": "tokenURI",
      "outputs": [
        {
          "internalType": "string",
          "name": "",
          "type": "string"
        }
      ],
      "stateMutability": "view",
      "type": "function"
    },
    {
      "inputs": [
        {
          "internalType": "address",
          "name": "from",
          "type": "address"
        },
        {
          "internalType": "address",
          "name": "to",
          "type": "address"
        },
        {
          "internalType": "uint256",
          "name": "tokenId",
          "type": "uint256"
        }
      ],
      "name": "transferFrom",
      "outputs": [],
      "stateMutability": "nonpayable",
      "type": "function"
    }
  ],
  "bytecode": "0x60806040523480156200001157600080fd5b50604080518082018252600e81526d4e46544d61726b6574706c61636560901b6020808301918252835180850190945260048452634e46544d60e01b908401528151919291620000649160009162000095565b5080516200007a90600190602084019062000095565b5050600780546001600160a01b031916331790555062000178565b828054620000a3906200013b565b90600052602060002090601f016020900481019282620000c7576000855562000112565b82601f10620000e257805160ff191683800117855562000112565b8280016001018555821562000112579182015b8281111562000112578251825591602001919060010190620000f5565b506200012092915062000124565b5090565b5b8082111562000120576000815560010162000125565b600181811c908216806200015057607f821691505b602082108114156200017257634e487b7160e01b600052602260045260246000fd5b50919050565b61127980620001886000396000f3fe608060405234801561001057600080fd5b50600436106100ea5760003560e01c806370a082311161008c578063a22cb46511610066578063a22cb465146101e1578063b88d4fde146101f4578063c87b56dd14610207578063e985e9c51461021a57600080fd5b806370a08231146101a55780638da5cb5b146101c657806395d89b41146101d957600080fd5b8063095ea7b3116100c8578063095ea7b31461015757806323b872dd1461016c57806342842e0e1461017f5780636352211e1461019257600080fd5b806301ffc9a7146100ef57806306fdde0314610117578063081812fc1461012c575b600080fd5b6101026100fd366004610fd1565b610256565b60405190151581526020015b60405180910390f35b61011f610281565b60405161010e91906110b9565b61013f61013a366004611009565b610313565b6040516001600160a01b03909116815260200161010e565b61016a610165366004610fa8565b61033a565b005b61016a61017a366004610e5e565b610455565b61016a61018d366004610e5e565b610486565b61013f6101a0366004611009565b6104a1565b6101b86101b3366004610e12565b610501565b60405190815260200161010e565b60075461013f906001600160a01b031681565b61011f610587565b61016a6101ef366004610f6e565b610596565b61016a610202366004610e99565b6105a5565b61011f610215366004611009565b6105dd565b610102610228366004610e2c565b6001600160a01b03918216600090815260056020908152604080832093909416825291909152205460ff1690565b60006001600160e01b03198216632483248360e11b148061027b575061027b826106ee565b92915050565b606060008054610290906111dc565b80601f01602080910402602001604051908101604052809291908181526020018280546102bc906111dc565b80156103095780601f106102de57610100808354040283529160200191610309565b820191906000526020600020905b8154815290600101906020018083116102ec57829003601f168201915b5050505050905090565b600061031e8261073e565b506000908152600460205260409020546001600160a01b031690565b6000610345826104a1565b9050806001600160a01b0316836001600160a01b031614156103b85760405162461bcd60e51b815260206004820152602160248201527f4552433732313a20617070726f76616c20746f2063757272656e74206f776e656044820152603960f91b60648201526084015b60405180910390fd5b336001600160a01b03821614806103d457506103d48133610228565b6104465760405162461bcd60e51b815260206004820152603d60248201527f4552433732313a20617070726f76652063616c6c6572206973206e6f7420746f60448201527f6b656e206f776e6572206f7220617070726f76656420666f7220616c6c00000060648201526084016103af565b61045083836107a0565b505050565b61045f338261080e565b61047b5760405162461bcd60e51b81526004016103af906110cc565b61045083838361088c565b610450838383604051806020016040528060008152506105a5565b6000818152600260205260408120546001600160a01b03168061027b5760405162461bcd60e51b8152602060048201526018602482015277115490cdcc8c4e881a5b9d985b1a59081d1bdad95b88125160421b60448201526064016103af565b60006001600160a01b03821661056b5760405162461bcd60e51b815260206004820152602960248201527f4552433732313a2061646472657373207a65726f206973206e6f7420612076616044820152683634b21037bbb732b960b91b60648201526084016103af565b506001600160a01b031660009081526003602052604090205490565b606060018054610290906111dc565b6105a13383836109f0565b5050565b6105af338361080e565b6105cb5760405162461bcd60e51b81526004016103af906110cc565b6105d784848484610abf565b50505050565b60606105e88261073e565b60008281526006602052604081208054610601906111dc565b80601f016020809104026020016040519081016040528092919081815260200182805461062d906111dc565b801561067a5780601f1061064f5761010080835404028352916020019161067a565b820191906000526020600020905b81548152906001019060200180831161065d57829003601f168201915b50505050509050600061069860408051602081019091526000815290565b90508051600014156106ab575092915050565b8151156106dd5780826040516020016106c592919061104d565b60405160208183030381529060405292505050919050565b6106e684610af2565b949350505050565b60006001600160e01b031982166380ac58cd60e01b148061071f57506001600160e01b03198216635b5e139f60e01b145b8061027b57506301ffc9a760e01b6001600160e01b031983161461027b565b6000818152600260205260409020546001600160a01b031661079d5760405162461bcd60e51b8152602060048201526018602482015277115490cdcc8c4e881a5b9d985b1a59081d1bdad95b88125160421b60448201526064016103af565b50565b600081815260046020526040902080546001600160a01b0319166001600160a01b03841690811790915581906107d5826104a1565b6001600160a01b03167f8c5be1e5ebec7d5bd14f71427d1e84f3dd0314c0f7b2291e5b200ac8c7c3b92560405160405180910390a45050565b60008061081a836104a1565b9050806001600160a01b0316846001600160a01b0316148061086157506001600160a01b0380821660009081526005602090815260408083209388168352929052205460ff165b806106e65750836001600160a01b031661087a84610313565b6001600160a01b031614949350505050565b826001600160a01b031661089f826104a1565b6001600160a01b0316146108c55760405162461bcd60e51b81526004016103af9061116b565b6001600160a01b0382166109275760405162461bcd60e51b8152602060048201526024808201527f4552433732313a207472616e7366657220746f20746865207a65726f206164646044820152637265737360e01b60648201526084016103af565b826001600160a01b031661093a826104a1565b6001600160a01b0316146109605760405162461bcd60e51b81526004016103af9061116b565b600081815260046020908152604080832080546001600160a01b03199081169091556001600160a01b0387811680865260038552838620805460001901905590871680865283862080546001019055868652600290945282852080549092168417909155905184937fddf252ad1be2c89b69c2b068fc378daa952ba7f163c4a11628f55a4df523b3ef91a4505050565b816001600160a01b0316836001600160a01b03161415610a525760405162461bcd60e51b815260206004820152601960248201527f4552433732313a20617070726f766520746f2063616c6c65720000000000000060448201526064016103af565b6001600160a01b03838116600081815260056020908152604080832094871680845294825291829020805460ff191686151590811790915591519182527f17307eab39ab6107e8899845ad3d59bd9653f200f220920489ca2b5937696c31910160405180910390a3505050565b610aca84848461088c565b610ad684848484610b66565b6105d75760405162461bcd60e51b81526004016103af90611119565b6060610afd8261073e565b6000610b1460408051602081019091526000815290565b90506000815111610b345760405180602001604052806000815250610b5f565b80610b3e84610c73565b604051602001610b4f92919061104d565b6040516020818303038152906040525b9392505050565b60006001600160a01b0384163b15610c6857604051630a85bd0160e11b81526001600160a01b0385169063150b7a0290610baa90339089908890889060040161107c565b602060405180830381600087803b158015610bc457600080fd5b505af1925050508015610bf4575060408051601f3d908101601f19168201909252610bf191810190610fed565b60015b610c4e573d808015610c22576040519150601f19603f3d011682016040523d82523d6000602084013e610c27565b606091505b508051610c465760405162461bcd60e51b81526004016103af90611119565b805181602001fd5b6001600160e01b031916630a85bd0160e11b1490506106e6565b506001949350505050565b60606000610c8083610d1e565b600101905060008167ffffffffffffffff811115610cae57634e487b7160e01b600052604160045260246000fd5b6040519080825280601f01601f191660200182016040528015610cd8576020820181803683370190505b5090508181016020015b600019016f181899199a1a9b1b9c1cb0b131b232b360811b600a86061a8153600a8504945084610d1157610d16565b610ce2565b509392505050565b60008072184f03e93ff9f4daa797ed6e38ed64bf6a1f0160401b8310610d5d5772184f03e93ff9f4daa797ed6e38ed64bf6a1f0160401b830492506040015b6d04ee2d6d415b85acef81000000008310610d89576d04ee2d6d415b85acef8100000000830492506020015b662386f26fc100008310610da757662386f26fc10000830492506010015b6305f5e1008310610dbf576305f5e100830492506008015b6127108310610dd357612710830492506004015b60648310610de5576064830492506002015b600a831061027b5760010192915050565b80356001600160a01b0381168114610e0d57600080fd5b919050565b600060208284031215610e23578081fd5b610b5f82610df6565b60008060408385031215610e3e578081fd5b610e4783610df6565b9150610e5560208401610df6565b90509250929050565b600080600060608486031215610e72578081fd5b610e7b84610df6565b9250610e8960208501610df6565b9150604084013590509250925092565b60008060008060808587031215610eae578081fd5b610eb785610df6565b9350610ec560208601610df6565b925060408501359150606085013567ffffffffffffffff80821115610ee8578283fd5b818701915087601f830112610efb578283fd5b813581811115610f0d57610f0d611217565b604051601f8201601f19908116603f01168101908382118183101715610f3557610f35611217565b816040528281528a6020848701011115610f4d578586fd5b82602086016020830137918201602001949094529598949750929550505050565b60008060408385031215610f80578182fd5b610f8983610df6565b915060208301358015158114610f9d578182fd5b809150509250929050565b60008060408385031215610fba578182fd5b610fc383610df6565b946020939093013593505050565b600060208284031215610fe2578081fd5b8135610b5f8161122d565b600060208284031215610ffe578081fd5b8151610b5f8161122d565b60006020828403121561101a578081fd5b5035919050565b600081518084526110398160208601602086016111b0565b601f01601f19169290920160200192915050565b6000835161105f8184602088016111b0565b8351908301906110738183602088016111b0565b01949350505050565b6001600160a01b03858116825284166020820152604081018390526080606082018190526000906110af90830184611021565b9695505050505050565b602081526000610b5f6020830184611021565b6020808252602d908201527f4552433732313a2063616c6c6572206973206e6f7420746f6b656e206f776e6560408201526c1c881bdc88185c1c1c9bdd9959609a1b606082015260800190565b60208082526032908201527f4552433732313a207472616e7366657220746f206e6f6e20455243373231526560408201527131b2b4bb32b91034b6b83632b6b2b73a32b960711b606082015260800190565b60208082526025908201527f4552433732313a207472616e736665722066726f6d20696e636f72726563742060408201526437bbb732b960d91b606082015260800190565b60005b838110156111cb5781810151838201526020016111b3565b838111156105d75750506000910152565b600181811c908216806111f057607f821691505b6020821081141561121157634e487b7160e01b600052602260045260246000fd5b50919050565b634e487b7160e01b600052604160045260246000fd5b6001600160e01b03198116811461079d57600080fdfea26469706673582212207b39d92498dd04efaa14bddfb904a4eec793290e8b4e79623f7ef9cc8d87c4a764736f6c63430008040033",
  "linkReferences": {},
  "deployedLinkReferences": {}
}