{
  "_format": "hh-sol-artifact-1",
  "contractName": "NFTMarketplace",
  "sourceName": "contracts/NFTMarketplace.sol",
  "abi": [
    {
      "inputs": [],
      "stateMutability": "nonpayable",
      "type": "constructor"
    },
    {
      "anonymous": false,
      "inputs": [
        {
          "indexed": true,
          "internalType": "address",
          "name": "owner",
          "type": "address"
        },
        {
          "indexed": true,
          "internalType": "address",
          "name": "approved",
          "type": "address"
        },
        {
          "indexed": true,
          "internalType": "uint256",
          "name": "tokenId",
          "type": "uint256"
        }
      ],
      "name": "Approval",
      "type": "event"
    },
    {
      "anonymous": false,
      "inputs": [
        {
          "indexed": true,
          "internalType": "address",
          "name": "owner",
          "type": "address"
        },
        {
          "indexed": true,
          "internalType": "address",
          "name": "operator",
          "type": "address"
        },
        {
          "indexed": false,
          "internalType": "bool",
          "name": "approved",
          "type": "bool"
        }
      ],
      "name": "ApprovalForAll",
      "type": "event"
    },
    {
      "anonymous": false,
      "inputs": [
        {
          "indexed": false,
          "internalType": "uint256",
          "name": "_fromTokenId",
          "type": "uint256"
        },
        {
          "indexed": false,
          "internalType": "uint256",
          "name": "_toTokenId",
          "type": "uint256"
        }
      ],
      "name": "BatchMetadataUpdate",
      "type": "event"
    },
    {
      "anonymous": false,
      "inputs": [
        {
          "indexed": false,
          "internalType": "uint256",
          "name": "_tokenId",
          "type": "uint256"
        }
      ],
      "name": "MetadataUpdate",
      "type": "event"
    },
    {
      "anonymous": false,
      "inputs": [
        {
          "indexed": true,
          "internalType": "address",
          "name": "from",
          "type": "address"
        },
        {
          "indexed": true,
          "internalType": "address",
          "name": "to",
          "type": "address"
        },
        {
          "indexed": true,
          "internalType": "uint256",
          "name": "tokenId",
          "type": "uint256"
        }
      ],
      "name": "Transfer",
      "type": "event"
    },
    {
      "inputs": [
        {
          "internalType": "address",
          "name": "to",
          "type": "address"
        },
        {
          "internalType": "uint256",
          "name": "tokenId",
          "type": "uint256"
        }
      ],
      "name": "approve",
      "outputs": [],
      "stateMutability": "nonpayable",
      "type": "function"
    },
    {
      "inputs": [
        {
          "internalType": "address",
          "name": "owner",
          "type": "address"
        }
      ],
      "name": "balanceOf",
      "outputs": [
        {
          "internalType": "uint256",
          "name": "",
          "type": "uint256"
        }
      ],
      "stateMutability": "view",
      "type": "function"
    },
    {
      "inputs": [
        {
          "internalType": "string",
          "name": "tokenURI",
          "type": "string"
        },
        {
          "internalType": "uint256",
          "name": "price",
          "type": "uint256"
        }
      ],
      "name": "createToken",
      "outputs": [
        {
          "internalType": "uint256",
          "name": "",
          "type": "uint256"
        }
      ],
      "stateMutability": "payable",
      "type": "function"
    },
    {
      "inputs": [
        {
          "internalType": "uint256",
          "name": "tokenId",
          "type": "uint256"
        }
      ],
      "name": "executeSale",
      "outputs": [],
      "stateMutability": "payable",
      "type": "function"
    },
    {
      "inputs": [],
      "name": "getAllNFTs",
      "outputs": [
        {
          "components": [
            {
              "internalType": "uint256",
              "name": "tokenId",
              "type": "uint256"
            },
            {
              "internalType": "address payable",
              "name": "owner",
              "type": "address"
            },
            {
              "internalType": "address payable",
              "name": "seller",
              "type": "address"
            },
            {
              "internalType": "uint256",
              "name": "price",
              "type": "uint256"
            },
            {
              "internalType": "bool",
              "name": "currentlyListed",
              "type": "bool"
            }
          ],
          "internalType": "struct NFTMarketplace.ListedToken[]",
          "name": "",
          "type": "tuple[]"
        }
      ],
      "stateMutability": "view",
      "type": "function"
    },
    {
      "inputs": [
        {
          "internalType": "uint256",
          "name": "tokenId",
          "type": "uint256"
        }
      ],
      "name": "getApproved",
      "outputs": [
        {
          "internalType": "address",
          "name": "",
          "type": "address"
        }
      ],
      "stateMutability": "view",
      "type": "function"
    },
    {
      "inputs": [],
      "name": "getCurrentToken",
      "outputs": [
        {
          "internalType": "uint256",
          "name": "",
          "type": "uint256"
        }
      ],
      "stateMutability": "view",
      "type": "function"
    },
    {
      "inputs": [],
      "name": "getLatestIdToListedToken",
      "outputs": [
        {
          "components": [
            {
              "internalType": "uint256",
              "name": "tokenId",
              "type": "uint256"
            },
            {
              "internalType": "address payable",
              "name": "owner",
              "type": "address"
            },
            {
              "internalType": "address payable",
              "name": "seller",
              "type": "address"
            },
            {
              "internalType": "uint256",
              "name": "price",
              "type": "uint256"
            },
            {
              "internalType": "bool",
              "name": "currentlyListed",
              "type": "bool"
            }
          ],
          "internalType": "struct NFTMarketplace.ListedToken",
          "name": "",
          "type": "tuple"
        }
      ],
      "stateMutability": "view",
      "type": "function"
    },
    {
      "inputs": [],
      "name": "getListedPrice",
      "outputs": [
        {
          "internalType": "uint256",
          "name": "",
          "type": "uint256"
        }
      ],
      "stateMutability": "view",
      "type": "function"
    },
    {
      "inputs": [
        {
          "internalType": "uint256",
          "name": "tokenId",
          "type": "uint256"
        }
      ],
      "name": "getListedTokenToId",
      "outputs": [
        {
          "components": [
            {
              "internalType": "uint256",
              "name": "tokenId",
              "type": "uint256"
            },
            {
              "internalType": "address payable",
              "name": "owner",
              "type": "address"
            },
            {
              "internalType": "address payable",
              "name": "seller",
              "type": "address"
            },
            {
              "internalType": "uint256",
              "name": "price",
              "type": "uint256"
            },
            {
              "internalType": "bool",
              "name": "currentlyListed",
              "type": "bool"
            }
          ],
          "internalType": "struct NFTMarketplace.ListedToken",
          "name": "",
          "type": "tuple"
        }
      ],
      "stateMutability": "view",
      "type": "function"
    },
    {
      "inputs": [],
      "name": "getMyNFTs",
      "outputs": [
        {
          "components": [
            {
              "internalType": "uint256",
              "name": "tokenId",
              "type": "uint256"
            },
            {
              "internalType": "address payable",
              "name": "owner",
              "type": "address"
            },
            {
              "internalType": "address payable",
              "name": "seller",
              "type": "address"
            },
            {
              "internalType": "uint256",
              "name": "price",
              "type": "uint256"
            },
            {
              "internalType": "bool",
              "name": "currentlyListed",
              "type": "bool"
            }
          ],
          "internalType": "struct NFTMarketplace.ListedToken[]",
          "name": "",
          "type": "tuple[]"
        }
      ],
      "stateMutability": "view",
      "type": "function"
    },
    {
      "inputs": [
        {
          "internalType": "address",
          "name": "owner",
          "type": "address"
        },
        {
          "internalType": "address",
          "name": "operator",
          "type": "address"
        }
      ],
      "name": "isApprovedForAll",
      "outputs": [
        {
          "internalType": "bool",
          "name": "",
          "type": "bool"
        }
      ],
      "stateMutability": "view",
      "type": "function"
    },
    {
      "inputs": [],
      "name": "name",
      "outputs": [
        {
          "internalType": "string",
          "name": "",
          "type": "string"
        }
      ],
      "stateMutability": "view",
      "type": "function"
    },
    {
      "inputs": [],
      "name": "owner",
      "outputs": [
        {
          "internalType": "address payable",
          "name": "",
          "type": "address"
        }
      ],
      "stateMutability": "view",
      "type": "function"
    },
    {
      "inputs": [
        {
          "internalType": "uint256",
          "name": "tokenId",
          "type": "uint256"
        }
      ],
      "name": "ownerOf",
      "outputs": [
        {
          "internalType": "address",
          "name": "",
          "type": "address"
        }
      ],
      "stateMutability": "view",
      "type": "function"
    },
    {
      "inputs": [
        {
          "internalType": "address",
          "name": "from",
          "type": "address"
        },
        {
          "internalType": "address",
          "name": "to",
          "type": "address"
        },
        {
          "internalType": "uint256",
          "name": "tokenId",
          "type": "uint256"
        }
      ],
      "name": "safeTransferFrom",
      "outputs": [],
      "stateMutability": "nonpayable",
      "type": "function"
    },
    {
      "inputs": [
        {
          "internalType": "address",
          "name": "from",
          "type": "address"
        },
        {
          "internalType": "address",
          "name": "to",
          "type": "address"
        },
        {
          "internalType": "uint256",
          "name": "tokenId",
          "type": "uint256"
        },
        {
          "internalType": "bytes",
          "name": "data",
          "type": "bytes"
        }
      ],
      "name": "safeTransferFrom",
      "outputs": [],
      "stateMutability": "nonpayable",
      "type": "function"
    },
    {
      "inputs": [
        {
          "internalType": "address",
          "name": "operator",
          "type": "address"
        },
        {
          "internalType": "bool",
          "name": "approved",
          "type": "bool"
        }
      ],
      "name": "setApprovalForAll",
      "outputs": [],
      "stateMutability": "nonpayable",
      "type": "function"
    },
    {
      "inputs": [
        {
          "internalType": "bytes4",
          "name": "interfaceId",
          "type": "bytes4"
        }
      ],
      "name": "supportsInterface",
      "outputs": [
        {
          "internalType": "bool",
          "name": "",
          "type": "bool"
        }
      ],
      "stateMutability": "view",
      "type": "function"
    },
    {
      "inputs": [],
      "name": "symbol",
      "outputs": [
        {
          "internalType": "string",
          "name": "",
          "type": "string"
        }
      ],
      "stateMutability": "view",
      "type": "function"
    },
    {
      "inputs": [
        {
          "internalType": "uint256",
          "name": "tokenId",
          "type": "uint256"
        }
      ],
      "name": "tokenURI",
      "outputs": [
        {
          "internalType": "string",
          "name": "",
          "type": "string"
        }
      ],
      "stateMutability": "view",
      "type": "function"
    },
    {
      "inputs": [
        {
          "internalType": "address",
          "name": "from",
          "type": "address"
        },
        {
          "internalType": "address",
          "name": "to",
          "type": "address"
        },
        {
          "internalType": "uint256",
          "name": "tokenId",
          "type": "uint256"
        }
      ],
      "name": "transferFrom",
      "outputs": [],
      "stateMutability": "nonpayable",
      "type": "function"
    },
    {
      "inputs": [
        {
          "internalType": "uint256",
          "name": "_listingPrice",
          "type": "uint256"
        }
      ],
      "name": "updateListedPrice",
      "outputs": [],
      "stateMutability": "payable",
      "type": "function"
    }
  ],
  "bytecode": "0x6080604052662386f26fc10000600a553480156200001c57600080fd5b50604080518082018252600e81526d4e46544d61726b6574706c61636560901b6020808301918252835180850190945260048452634e46544d60e01b9084015281519192916200006f91600091620000a0565b50805162000085906001906020840190620000a0565b5050600980546001600160a01b031916331790555062000183565b828054620000ae9062000146565b90600052602060002090601f016020900481019282620000d257600085556200011d565b82601f10620000ed57805160ff19168380011785556200011d565b828001600101855582156200011d579182015b828111156200011d57825182559160200191906001019062000100565b506200012b9291506200012f565b5090565b5b808211156200012b576000815560010162000130565b600181811c908216806200015b57607f821691505b602082108114156200017d57634e487b7160e01b600052602260045260246000fd5b50919050565b61201b80620001936000396000f3fe6080604052600436106101405760003560e01c80638da5cb5b116100b6578063c87b56dd1161006f578063c87b56dd14610369578063d1a88ae514610389578063e0391b09146103ab578063e36fe066146103c0578063e985e9c5146103e0578063ef2d17461461042957600080fd5b80638da5cb5b146102ce57806395d89b41146102ee5780639b1225c4146103035780639e52ce1414610316578063a22cb46514610329578063b88d4fde1461034957600080fd5b806342842e0e1161010857806342842e0e14610216578063629cb2e4146102365780636352211e1461025857806370a082311461027857806372b3b620146102a657806377b04af7146102b957600080fd5b806301ffc9a71461014557806306fdde031461017a578063081812fc1461019c578063095ea7b3146101d457806323b872dd146101f6575b600080fd5b34801561015157600080fd5b50610165610160366004611c38565b61043e565b60405190151581526020015b60405180910390f35b34801561018657600080fd5b5061018f610469565b6040516101719190611e04565b3480156101a857600080fd5b506101bc6101b7366004611cc6565b6104fb565b6040516001600160a01b039091168152602001610171565b3480156101e057600080fd5b506101f46101ef366004611c0f565b610522565b005b34801561020257600080fd5b506101f4610211366004611b21565b61063d565b34801561022257600080fd5b506101f4610231366004611b21565b61066e565b34801561024257600080fd5b5061024b610689565b6040516101719190611db6565b34801561026457600080fd5b506101bc610273366004611cc6565b610866565b34801561028457600080fd5b50610298610293366004611ad5565b6108c6565b604051908152602001610171565b6102986102b4366004611c70565b61094c565b3480156102c557600080fd5b50600a54610298565b3480156102da57600080fd5b506009546101bc906001600160a01b031681565b3480156102fa57600080fd5b5061018f61098e565b6101f4610311366004611cc6565b61099d565b6101f4610324366004611cc6565b610ae9565b34801561033557600080fd5b506101f4610344366004611bd5565b610b59565b34801561035557600080fd5b506101f4610364366004611b5c565b610b68565b34801561037557600080fd5b5061018f610384366004611cc6565b610b9a565b34801561039557600080fd5b5061039e610cab565b6040516101719190611efb565b3480156103b757600080fd5b5061024b610d22565b3480156103cc57600080fd5b5061039e6103db366004611cc6565b610e69565b3480156103ec57600080fd5b506101656103fb366004611aef565b6001600160a01b03918216600090815260056020908152604080832093909416825291909152205460ff1690565b34801561043557600080fd5b50610298610e76565b60006001600160e01b03198216632483248360e11b1480610463575061046382610e86565b92915050565b60606000805461047890611f4d565b80601f01602080910402602001604051908101604052809291908181526020018280546104a490611f4d565b80156104f15780601f106104c6576101008083540402835291602001916104f1565b820191906000526020600020905b8154815290600101906020018083116104d457829003601f168201915b5050505050905090565b600061050682610ed6565b506000908152600460205260409020546001600160a01b031690565b600061052d82610866565b9050806001600160a01b0316836001600160a01b031614156105a05760405162461bcd60e51b815260206004820152602160248201527f4552433732313a20617070726f76616c20746f2063757272656e74206f776e656044820152603960f91b60648201526084015b60405180910390fd5b336001600160a01b03821614806105bc57506105bc81336103fb565b61062e5760405162461bcd60e51b815260206004820152603d60248201527f4552433732313a20617070726f76652063616c6c6572206973206e6f7420746f60448201527f6b656e206f776e6572206f7220617070726f76656420666f7220616c6c0000006064820152608401610597565b6106388383610f38565b505050565b6106473382610fa6565b6106635760405162461bcd60e51b815260040161059790611e17565b610638838383611024565b61063883838360405180602001604052806000815250610b68565b6060600061069660075490565b905060008060005b8381101561072e5733600b60006106b6846001611f09565b81526020810191909152604001600020600101546001600160a01b03161480610709575033600b60006106ea846001611f09565b81526020810191909152604001600020600201546001600160a01b0316145b1561071c57610719600184611f09565b92505b8061072681611f88565b91505061069e565b5060008267ffffffffffffffff81111561075857634e487b7160e01b600052604160045260246000fd5b60405190808252806020026020018201604052801561079157816020015b61077e611981565b8152602001906001900390816107765790505b50905060005b8481101561085d5760006107ac826001611f09565b6000818152600b6020908152604091829020825160a0810184528154815260018201546001600160a01b039081169382019390935260028201549092169282019290925260038201546060820152600482015460ff16151560808201528551929350909185908790811061083057634e487b7160e01b600052603260045260246000fd5b6020908102919091010152610846600186611f09565b94505050808061085590611f88565b915050610797565b50949350505050565b6000818152600260205260408120546001600160a01b0316806104635760405162461bcd60e51b8152602060048201526018602482015277115490cdcc8c4e881a5b9d985b1a59081d1bdad95b88125160421b6044820152606401610597565b60006001600160a01b0382166109305760405162461bcd60e51b815260206004820152602960248201527f4552433732313a2061646472657373207a65726f206973206e6f7420612076616044820152683634b21037bbb732b960b91b6064820152608401610597565b506001600160a01b031660009081526003602052604090205490565b600061095c600780546001019055565b600061096760075490565b90506109733382611188565b61097d81856111a2565b6109878184611274565b9392505050565b60606001805461047890611f4d565b6000818152600b6020526040902060038101546002909101546001600160a01b0316348214610a1e5760405162461bcd60e51b815260206004820152602760248201527f5375626d6974207468652061736b2062696420696e206f7264657220746f20706044820152667572636861736560c81b6064820152608401610597565b6000838152600b6020526040902060048101805460ff1916600117905560020180546001600160a01b03191633179055610a5c600880546001019055565b610a67303385611024565b610a713084610522565b600954600a546040516001600160a01b039092169181156108fc0291906000818181858888f19350505050158015610aad573d6000803e3d6000fd5b506040516001600160a01b038216903480156108fc02916000818181858888f19350505050158015610ae3573d6000803e3d6000fd5b50505050565b6009546001600160a01b03163314610b545760405162461bcd60e51b815260206004820152602860248201527f4f6e6c79206f776e65722063616e2075706461746520746865206c697374696e604482015267672070726963652160c01b6064820152608401610597565b600a55565b610b643383836113be565b5050565b610b723383610fa6565b610b8e5760405162461bcd60e51b815260040161059790611e17565b610ae38484848461148d565b6060610ba582610ed6565b60008281526006602052604081208054610bbe90611f4d565b80601f0160208091040260200160405190810160405280929190818152602001828054610bea90611f4d565b8015610c375780601f10610c0c57610100808354040283529160200191610c37565b820191906000526020600020905b815481529060010190602001808311610c1a57829003601f168201915b505050505090506000610c5560408051602081019091526000815290565b9050805160001415610c68575092915050565b815115610c9a578082604051602001610c82929190611d4a565b60405160208183030381529060405292505050919050565b610ca3846114c0565b949350505050565b610cb3611981565b6000610cbe60075490565b6000908152600b6020908152604091829020825160a0810184528154815260018201546001600160a01b03908116938201939093526002820154909216928201929092526003820154606082015260049091015460ff161515608082015292915050565b60606000610d2f60075490565b905060008167ffffffffffffffff811115610d5a57634e487b7160e01b600052604160045260246000fd5b604051908082528060200260200182016040528015610d9357816020015b610d80611981565b815260200190600190039081610d785790505b5090506000805b83811015610e60576000610daf826001611f09565b6000818152600b6020908152604091829020825160a0810184528154815260018201546001600160a01b039081169382019390935260028201549092169282019290925260038201546060820152600482015460ff161515608082015286519293509091869086908110610e3357634e487b7160e01b600052603260045260246000fd5b6020908102919091010152610e49600185611f09565b935050508080610e5890611f88565b915050610d9a565b50909392505050565b610e71611981565b919050565b6000610e8160075490565b905090565b60006001600160e01b031982166380ac58cd60e01b1480610eb757506001600160e01b03198216635b5e139f60e01b145b8061046357506301ffc9a760e01b6001600160e01b0319831614610463565b6000818152600260205260409020546001600160a01b0316610f355760405162461bcd60e51b8152602060048201526018602482015277115490cdcc8c4e881a5b9d985b1a59081d1bdad95b88125160421b6044820152606401610597565b50565b600081815260046020526040902080546001600160a01b0319166001600160a01b0384169081179091558190610f6d82610866565b6001600160a01b03167f8c5be1e5ebec7d5bd14f71427d1e84f3dd0314c0f7b2291e5b200ac8c7c3b92560405160405180910390a45050565b600080610fb283610866565b9050806001600160a01b0316846001600160a01b03161480610ff957506001600160a01b0380821660009081526005602090815260408083209388168352929052205460ff165b80610ca35750836001600160a01b0316611012846104fb565b6001600160a01b031614949350505050565b826001600160a01b031661103782610866565b6001600160a01b03161461105d5760405162461bcd60e51b815260040161059790611eb6565b6001600160a01b0382166110bf5760405162461bcd60e51b8152602060048201526024808201527f4552433732313a207472616e7366657220746f20746865207a65726f206164646044820152637265737360e01b6064820152608401610597565b826001600160a01b03166110d282610866565b6001600160a01b0316146110f85760405162461bcd60e51b815260040161059790611eb6565b600081815260046020908152604080832080546001600160a01b03199081169091556001600160a01b0387811680865260038552838620805460001901905590871680865283862080546001019055868652600290945282852080549092168417909155905184937fddf252ad1be2c89b69c2b068fc378daa952ba7f163c4a11628f55a4df523b3ef91a4505050565b610b64828260405180602001604052806000815250611533565b6000828152600260205260409020546001600160a01b031661121d5760405162461bcd60e51b815260206004820152602e60248201527f45524337323155524953746f726167653a2055524920736574206f66206e6f6e60448201526d32bc34b9ba32b73a103a37b5b2b760911b6064820152608401610597565b6000828152600660209081526040909120825161123c928401906119af565b506040518281527ff8e1a15aba9398e019f0b49df1a4fde98ee17ae345cb5f6b5e2c27f5033e8ce79060200160405180910390a15050565b600a5434146112d15760405162461bcd60e51b815260206004820152602360248201527f506169642076616c7565206973206e6f7420746865206c697374696e672076616044820152626c756560e81b6064820152608401610597565b600081116113215760405162461bcd60e51b815260206004820152601760248201527f50726963652063616e2774206265206e656761746976650000000000000000006044820152606401610597565b6040805160a081018252838152306020808301828152338486018181526060860188815260016080880181815260008c8152600b9097529890952096518755925193860180546001600160a01b039586166001600160a01b03199182161790915590516002870180549190951691161790925551600384015592516004909201805492151560ff1990931692909217909155610b64919084611024565b816001600160a01b0316836001600160a01b031614156114205760405162461bcd60e51b815260206004820152601960248201527f4552433732313a20617070726f766520746f2063616c6c6572000000000000006044820152606401610597565b6001600160a01b03838116600081815260056020908152604080832094871680845294825291829020805460ff191686151590811790915591519182527f17307eab39ab6107e8899845ad3d59bd9653f200f220920489ca2b5937696c31910160405180910390a3505050565b611498848484611024565b6114a484848484611566565b610ae35760405162461bcd60e51b815260040161059790611e64565b60606114cb82610ed6565b60006114e260408051602081019091526000815290565b905060008151116115025760405180602001604052806000815250610987565b8061150c84611673565b60405160200161151d929190611d4a565b6040516020818303038152906040529392505050565b61153d838361171e565b61154a6000848484611566565b6106385760405162461bcd60e51b815260040161059790611e64565b60006001600160a01b0384163b1561166857604051630a85bd0160e11b81526001600160a01b0385169063150b7a02906115aa903390899088908890600401611d79565b602060405180830381600087803b1580156115c457600080fd5b505af19250505080156115f4575060408051601f3d908101601f191682019092526115f191810190611c54565b60015b61164e573d808015611622576040519150601f19603f3d011682016040523d82523d6000602084013e611627565b606091505b5080516116465760405162461bcd60e51b815260040161059790611e64565b805181602001fd5b6001600160e01b031916630a85bd0160e11b149050610ca3565b506001949350505050565b60606000611680836118a9565b600101905060008167ffffffffffffffff8111156116ae57634e487b7160e01b600052604160045260246000fd5b6040519080825280601f01601f1916602001820160405280156116d8576020820181803683370190505b5090508181016020015b600019016f181899199a1a9b1b9c1cb0b131b232b360811b600a86061a8153600a850494508461171157611716565b6116e2565b509392505050565b6001600160a01b0382166117745760405162461bcd60e51b815260206004820181905260248201527f4552433732313a206d696e7420746f20746865207a65726f20616464726573736044820152606401610597565b6000818152600260205260409020546001600160a01b0316156117d95760405162461bcd60e51b815260206004820152601c60248201527f4552433732313a20746f6b656e20616c7265616479206d696e746564000000006044820152606401610597565b6000818152600260205260409020546001600160a01b03161561183e5760405162461bcd60e51b815260206004820152601c60248201527f4552433732313a20746f6b656e20616c7265616479206d696e746564000000006044820152606401610597565b6001600160a01b038216600081815260036020908152604080832080546001019055848352600290915280822080546001600160a01b0319168417905551839291907fddf252ad1be2c89b69c2b068fc378daa952ba7f163c4a11628f55a4df523b3ef908290a45050565b60008072184f03e93ff9f4daa797ed6e38ed64bf6a1f0160401b83106118e85772184f03e93ff9f4daa797ed6e38ed64bf6a1f0160401b830492506040015b6d04ee2d6d415b85acef81000000008310611914576d04ee2d6d415b85acef8100000000830492506020015b662386f26fc10000831061193257662386f26fc10000830492506010015b6305f5e100831061194a576305f5e100830492506008015b612710831061195e57612710830492506004015b60648310611970576064830492506002015b600a83106104635760010192915050565b6040805160a08101825260008082526020820181905291810182905260608101829052608081019190915290565b8280546119bb90611f4d565b90600052602060002090601f0160209004810192826119dd5760008555611a23565b82601f106119f657805160ff1916838001178555611a23565b82800160010185558215611a23579182015b82811115611a23578251825591602001919060010190611a08565b50611a2f929150611a33565b5090565b5b80821115611a2f5760008155600101611a34565b600067ffffffffffffffff80841115611a6357611a63611fb9565b604051601f8501601f19908116603f01168101908282118183101715611a8b57611a8b611fb9565b81604052809350858152868686011115611aa457600080fd5b858560208301376000602087830101525050509392505050565b80356001600160a01b0381168114610e7157600080fd5b600060208284031215611ae6578081fd5b61098782611abe565b60008060408385031215611b01578081fd5b611b0a83611abe565b9150611b1860208401611abe565b90509250929050565b600080600060608486031215611b35578081fd5b611b3e84611abe565b9250611b4c60208501611abe565b9150604084013590509250925092565b60008060008060808587031215611b71578081fd5b611b7a85611abe565b9350611b8860208601611abe565b925060408501359150606085013567ffffffffffffffff811115611baa578182fd5b8501601f81018713611bba578182fd5b611bc987823560208401611a48565b91505092959194509250565b60008060408385031215611be7578182fd5b611bf083611abe565b915060208301358015158114611c04578182fd5b809150509250929050565b60008060408385031215611c21578182fd5b611c2a83611abe565b946020939093013593505050565b600060208284031215611c49578081fd5b813561098781611fcf565b600060208284031215611c65578081fd5b815161098781611fcf565b60008060408385031215611c82578182fd5b823567ffffffffffffffff811115611c98578283fd5b8301601f81018513611ca8578283fd5b611cb785823560208401611a48565b95602094909401359450505050565b600060208284031215611cd7578081fd5b5035919050565b60008151808452611cf6816020860160208601611f21565b601f01601f19169290920160200192915050565b805182526020808201516001600160a01b039081169184019190915260408083015190911690830152606080820151908301526080908101511515910152565b60008351611d5c818460208801611f21565b835190830190611d70818360208801611f21565b01949350505050565b6001600160a01b0385811682528416602082015260408101839052608060608201819052600090611dac90830184611cde565b9695505050505050565b6020808252825182820181905260009190848201906040850190845b81811015611df857611de5838551611d0a565b9284019260a09290920191600101611dd2565b50909695505050505050565b6020815260006109876020830184611cde565b6020808252602d908201527f4552433732313a2063616c6c6572206973206e6f7420746f6b656e206f776e6560408201526c1c881bdc88185c1c1c9bdd9959609a1b606082015260800190565b60208082526032908201527f4552433732313a207472616e7366657220746f206e6f6e20455243373231526560408201527131b2b4bb32b91034b6b83632b6b2b73a32b960711b606082015260800190565b60208082526025908201527f4552433732313a207472616e736665722066726f6d20696e636f72726563742060408201526437bbb732b960d91b606082015260800190565b60a081016104638284611d0a565b60008219821115611f1c57611f1c611fa3565b500190565b60005b83811015611f3c578181015183820152602001611f24565b83811115610ae35750506000910152565b600181811c90821680611f6157607f821691505b60208210811415611f8257634e487b7160e01b600052602260045260246000fd5b50919050565b6000600019821415611f9c57611f9c611fa3565b5060010190565b634e487b7160e01b600052601160045260246000fd5b634e487b7160e01b600052604160045260246000fd5b6001600160e01b031981168114610f3557600080fdfea26469706673582212202ab8f126d5625ec653788216caa529748246154b2f7a121a2c5a62d333801f6b64736f6c63430008040033",
  "linkReferences": {},
  "deployedLinkReferences": {}
}